{
  "contractName": "Lottery",
  "abi": [
    {
      "inputs": [],
      "stateMutability": "nonpayable",
      "type": "constructor"
    },
    {
      "anonymous": false,
      "inputs": [
        {
          "indexed": false,
          "internalType": "address",
          "name": "winningPlayer",
          "type": "address"
        },
        {
          "indexed": false,
          "internalType": "address",
          "name": "winningDealer",
          "type": "address"
        },
        {
          "indexed": false,
          "internalType": "uint256",
          "name": "winnerPrize",
          "type": "uint256"
        },
        {
          "indexed": false,
          "internalType": "uint256",
          "name": "dealerPrize",
          "type": "uint256"
        },
        {
          "indexed": false,
          "internalType": "uint256",
          "name": "luckyNumber",
          "type": "uint256"
        }
      ],
      "name": "newWinner",
      "type": "event"
    },
    {
      "anonymous": false,
      "inputs": [
        {
          "indexed": false,
          "internalType": "uint256",
          "name": "ticketSerialNumber",
          "type": "uint256"
        }
      ],
      "name": "ticketCreated",
      "type": "event"
    },
    {
      "inputs": [
        {
          "internalType": "uint256",
          "name": "",
          "type": "uint256"
        }
      ],
      "name": "addresses",
      "outputs": [
        {
          "internalType": "address",
          "name": "",
          "type": "address"
        }
      ],
      "stateMutability": "view",
      "type": "function",
      "constant": true
    },
    {
      "inputs": [],
      "name": "commission",
      "outputs": [
        {
          "internalType": "uint256",
          "name": "",
          "type": "uint256"
        }
      ],
      "stateMutability": "view",
      "type": "function",
      "constant": true
    },
    {
      "inputs": [
        {
          "internalType": "uint256",
          "name": "",
          "type": "uint256"
        }
      ],
      "name": "dealers",
      "outputs": [
        {
          "internalType": "address",
          "name": "",
          "type": "address"
        }
      ],
      "stateMutability": "view",
      "type": "function",
      "constant": true
    },
    {
      "inputs": [],
      "name": "owner",
      "outputs": [
        {
          "internalType": "address",
          "name": "",
          "type": "address"
        }
      ],
      "stateMutability": "view",
      "type": "function",
      "constant": true
    },
    {
      "inputs": [],
      "name": "countTickets",
      "outputs": [
        {
          "internalType": "uint256",
          "name": "",
          "type": "uint256"
        }
      ],
      "stateMutability": "view",
      "type": "function",
      "constant": true
    },
    {
      "inputs": [],
      "name": "createRandom",
      "outputs": [
        {
          "internalType": "uint256",
          "name": "",
          "type": "uint256"
        }
      ],
      "stateMutability": "view",
      "type": "function",
      "constant": true
    },
    {
      "inputs": [
        {
          "internalType": "uint256",
          "name": "_jackpot",
          "type": "uint256"
        }
      ],
      "name": "howMuchIsPrize",
      "outputs": [
        {
          "internalType": "uint256",
          "name": "",
          "type": "uint256"
        }
      ],
      "stateMutability": "pure",
      "type": "function",
      "constant": true
    },
    {
      "inputs": [],
      "name": "drawWinner",
      "outputs": [],
      "stateMutability": "nonpayable",
      "type": "function"
    },
    {
      "inputs": [
        {
          "internalType": "address",
          "name": "_player",
          "type": "address"
        },
        {
          "internalType": "address",
          "name": "_dealer",
          "type": "address"
        },
        {
          "internalType": "address",
          "name": "_ticket",
          "type": "address"
        }
      ],
      "name": "registerTicket",
      "outputs": [],
      "stateMutability": "payable",
      "type": "function",
      "payable": true
    }
  ],
  "bytecode": "0x60806040526706f05b59d3b2000060035534801561001c57600080fd5b50336000806101000a81548173ffffffffffffffffffffffffffffffffffffffff021916908373ffffffffffffffffffffffffffffffffffffffff1602179055507355d398326f99059ff775485246999027b3197955600460006101000a81548173ffffffffffffffffffffffffffffffffffffffff021916908373ffffffffffffffffffffffffffffffffffffffff160217905550610fa6806100c16000396000f3fe6080604052600436106100865760003560e01c8063b2185bb111610059578063b2185bb114610149578063e148919114610160578063e7f41cf01461018b578063edf26d9b146101c8578063fb1541b21461020557610086565b8063049fb5201461008b578063640056ee146100b65780638da5cb5b146100f3578063a9659f051461011e575b600080fd5b34801561009757600080fd5b506100a0610221565b6040516100ad9190610db9565b60405180910390f35b3480156100c257600080fd5b506100dd60048036038101906100d89190610b29565b61022e565b6040516100ea9190610db9565b60405180910390f35b3480156100ff57600080fd5b5061010861025a565b6040516101159190610cc2565b60405180910390f35b34801561012a57600080fd5b5061013361027e565b6040516101409190610db9565b60405180910390f35b34801561015557600080fd5b5061015e6102c4565b005b34801561016c57600080fd5b50610175610707565b6040516101829190610db9565b60405180910390f35b34801561019757600080fd5b506101b260048036038101906101ad9190610b29565b61070d565b6040516101bf9190610cc2565b60405180910390f35b3480156101d457600080fd5b506101ef60048036038101906101ea9190610b29565b61074c565b6040516101fc9190610cc2565b60405180910390f35b61021f600480360381019061021a9190610ab1565b61078b565b005b6000600280549050905090565b600080600a8361023e9190610de5565b90506000818461024e9190610e16565b90508092505050919050565b60008054906101000a900473ffffffffffffffffffffffffffffffffffffffff1681565b60006002805490504244604051602001610299929190610c96565b6040516020818303038152906040528051906020012060001c6102bc9190610e9c565b60ff16905090565b60008054906101000a900473ffffffffffffffffffffffffffffffffffffffff1673ffffffffffffffffffffffffffffffffffffffff163373ffffffffffffffffffffffffffffffffffffffff1614610352576040517f08c379a000000000000000000000000000000000000000000000000000000000815260040161034990610d59565b60405180910390fd5b60006002805490501161039a576040517f08c379a000000000000000000000000000000000000000000000000000000000815260040161039190610d99565b60405180910390fd5b60006103a461027e565b90506000600282815481106103e2577f4e487b7100000000000000000000000000000000000000000000000000000000600052603260045260246000fd5b9060005260206000200160009054906101000a900473ffffffffffffffffffffffffffffffffffffffff16905060006001838154811061044b577f4e487b7100000000000000000000000000000000000000000000000000000000600052603260045260246000fd5b9060005260206000200160009054906101000a900473ffffffffffffffffffffffffffffffffffffffff1690506000600460009054906101000a900473ffffffffffffffffffffffffffffffffffffffff1673ffffffffffffffffffffffffffffffffffffffff166370a08231306040518263ffffffff1660e01b81526004016104d59190610cc2565b60206040518083038186803b1580156104ed57600080fd5b505afa158015610501573d6000803e3d6000fd5b505050506040513d601f19601f820116820180604052508101906105259190610b52565b905060006105328261022e565b9050600081836105429190610e16565b9050600260006105529190610a1f565b600160006105609190610a1f565b600460009054906101000a900473ffffffffffffffffffffffffffffffffffffffff1673ffffffffffffffffffffffffffffffffffffffff1663a9059cbb86846040518363ffffffff1660e01b81526004016105bd929190610d30565b602060405180830381600087803b1580156105d757600080fd5b505af11580156105eb573d6000803e3d6000fd5b505050506040513d601f19601f8201168201806040525081019061060f9190610b00565b50600460009054906101000a900473ffffffffffffffffffffffffffffffffffffffff1673ffffffffffffffffffffffffffffffffffffffff1663a9059cbb85836040518363ffffffff1660e01b815260040161066d929190610d30565b602060405180830381600087803b15801561068757600080fd5b505af115801561069b573d6000803e3d6000fd5b505050506040513d601f19601f820116820180604052508101906106bf9190610b00565b507f431db5fba031967b8e836e81b29a0b50c57e2c13b5c20bfc59310ec32757c18e858584848a6040516106f7959493929190610cdd565b60405180910390a1505050505050565b60035481565b6001818154811061071d57600080fd5b906000526020600020016000915054906101000a900473ffffffffffffffffffffffffffffffffffffffff1681565b6002818154811061075c57600080fd5b906000526020600020016000915054906101000a900473ffffffffffffffffffffffffffffffffffffffff1681565b60008054906101000a900473ffffffffffffffffffffffffffffffffffffffff1673ffffffffffffffffffffffffffffffffffffffff163373ffffffffffffffffffffffffffffffffffffffff1614610819576040517f08c379a000000000000000000000000000000000000000000000000000000000815260040161081090610d79565b60405180910390fd5b600060028054905090506002849080600181540180825580915050600190039060005260206000200160009091909190916101000a81548173ffffffffffffffffffffffffffffffffffffffff021916908373ffffffffffffffffffffffffffffffffffffffff1602179055506001839080600181540180825580915050600190039060005260206000200160009091909190916101000a81548173ffffffffffffffffffffffffffffffffffffffff021916908373ffffffffffffffffffffffffffffffffffffffff160217905550600460009054906101000a900473ffffffffffffffffffffffffffffffffffffffff1673ffffffffffffffffffffffffffffffffffffffff1663a9059cbb846003546040518363ffffffff1660e01b8152600401610948929190610d30565b602060405180830381600087803b15801561096257600080fd5b505af1158015610976573d6000803e3d6000fd5b505050506040513d601f19601f8201168201806040525081019061099a9190610b00565b508173ffffffffffffffffffffffffffffffffffffffff166108fc349081150290604051600060405180830381858888f193505050501580156109e1573d6000803e3d6000fd5b507fdb0768e60aff03a7bcaff4bb349275ba861e576848c43c99418047adce10e8e581604051610a119190610db9565b60405180910390a150505050565b5080546000825590600052602060002090810190610a3d9190610a40565b50565b5b80821115610a59576000816000905550600101610a41565b5090565b600081359050610a6c81610f2b565b92915050565b600081519050610a8181610f42565b92915050565b600081359050610a9681610f59565b92915050565b600081519050610aab81610f59565b92915050565b600080600060608486031215610ac657600080fd5b6000610ad486828701610a5d565b9350506020610ae586828701610a5d565b9250506040610af686828701610a5d565b9150509250925092565b600060208284031215610b1257600080fd5b6000610b2084828501610a72565b91505092915050565b600060208284031215610b3b57600080fd5b6000610b4984828501610a87565b91505092915050565b600060208284031215610b6457600080fd5b6000610b7284828501610a9c565b91505092915050565b610b8481610e4a565b82525050565b6000610b97602283610dd4565b91507f4f6e6c7920746865204f776e65722043616e2044726177207468652057696e6e60008301527f65720000000000000000000000000000000000000000000000000000000000006020830152604082019050919050565b6000610bfd601e83610dd4565b91507f4f6e6c79204f776e65722043616e205265676973746572205469636b657400006000830152602082019050919050565b6000610c3d601583610dd4565b91507f4e6f205469636b6574732c204e6f2057696e6e657200000000000000000000006000830152602082019050919050565b610c7981610e88565b82525050565b610c90610c8b82610e88565b610e92565b82525050565b6000610ca28285610c7f565b602082019150610cb28284610c7f565b6020820191508190509392505050565b6000602082019050610cd76000830184610b7b565b92915050565b600060a082019050610cf26000830188610b7b565b610cff6020830187610b7b565b610d0c6040830186610c70565b610d196060830185610c70565b610d266080830184610c70565b9695505050505050565b6000604082019050610d456000830185610b7b565b610d526020830184610c70565b9392505050565b60006020820190508181036000830152610d7281610b8a565b9050919050565b60006020820190508181036000830152610d9281610bf0565b9050919050565b60006020820190508181036000830152610db281610c30565b9050919050565b6000602082019050610dce6000830184610c70565b92915050565b600082825260208201905092915050565b6000610df082610e88565b9150610dfb83610e88565b925082610e0b57610e0a610efc565b5b828204905092915050565b6000610e2182610e88565b9150610e2c83610e88565b925082821015610e3f57610e3e610ecd565b5b828203905092915050565b6000610e5582610e68565b9050919050565b60008115159050919050565b600073ffffffffffffffffffffffffffffffffffffffff82169050919050565b6000819050919050565b6000819050919050565b6000610ea782610e88565b9150610eb283610e88565b925082610ec257610ec1610efc565b5b828206905092915050565b7f4e487b7100000000000000000000000000000000000000000000000000000000600052601160045260246000fd5b7f4e487b7100000000000000000000000000000000000000000000000000000000600052601260045260246000fd5b610f3481610e4a565b8114610f3f57600080fd5b50565b610f4b81610e5c565b8114610f5657600080fd5b50565b610f6281610e88565b8114610f6d57600080fd5b5056fea26469706673582212204d2963c49eec818b3f00203f58a90d1cb4bbdb54d73db04b6a0541de408ebcc464736f6c63430008000033",
  "immutableReferences": {},
  "source": "// SPDX-License-Identifier: GPL-3.0\npragma solidity ^0.8.0;\n\nimport \"@openzeppelin/contracts/token/ERC20/ERC20.sol\";\n\ncontract Lottery {\n\n    address public owner;\n    address[] public dealers;\n    address[] public addresses;\n    uint public commission = (10 ** 18) / 2;\n\n    ERC20 usdt;\n\n    event ticketCreated(\n        uint ticketSerialNumber\n    );\n\n    event newWinner(\n        address winningPlayer,\n        address winningDealer,\n        uint winnerPrize,\n        uint dealerPrize,\n        uint luckyNumber\n    );\n\n    constructor () {\n        owner = msg.sender;\n        usdt = ERC20(0x55d398326f99059fF775485246999027B3197955);\n        //usdt = ERC20(0x337610d27c682E347C9cD60BD4b3b107C9d34dDd);\n    }\n\n    function countTickets () public view returns (uint) {\n        return addresses.length;\n    }\n\n    function createRandom() public view returns(uint){\n        return uint8(uint256(\n            keccak256(\n                abi.encodePacked(block.timestamp, block.difficulty))\n            ) % addresses.length);\n    }\n\n    function howMuchIsPrize(uint _jackpot) public pure returns (uint){\n        uint dealerReward = _jackpot / 10;\n        uint prize = _jackpot - dealerReward;\n        return prize;\n    }\n\n    function drawWinner () public {\n        \n        //Check preconditions\n        require(msg.sender == owner, \"Only the Owner Can Draw the Winner\");\n        require(addresses.length > 0, \"No Tickets, No Winner\");\n        \n        //Get winner address\n        uint winnerIndex = createRandom();\n        address winningPlayer = addresses[winnerIndex];\n        address winningDealer = dealers[winnerIndex];\n\n        //Get amount for winner and owner\n        uint jackpot = usdt.balanceOf(address(this));\n        uint prize = howMuchIsPrize(jackpot);\n        uint dealerReward = jackpot - prize;\n\n        //Reset variables for next draw\n        delete addresses;\n        delete dealers;\n\n        //Send money\n        usdt.transfer(winningPlayer, prize);\n        usdt.transfer(winningDealer, dealerReward);\n        \n        //Emit Event\n        emit newWinner(winningPlayer, winningDealer, prize, dealerReward, winnerIndex);\n\n    }\n\n    function registerTicket(address _player, address _dealer, address _ticket) public payable {\n        require(msg.sender == owner, \"Only Owner Can Register Ticket\");\n        uint ticketSerialNumber = addresses.length;\n        addresses.push(_player);\n        dealers.push(_dealer);\n        usdt.transfer(_dealer, commission);\n        payable(_ticket).transfer(msg.value);\n        emit ticketCreated(ticketSerialNumber);\n    }\n\n}",
  "sourcePath": "/Users/mariomazzola/Documents/Portfolio/Lottery/LotteryContract/contracts/Lottery.sol",
  "compiler": {
    "name": "solc",
    "version": "0.8.0+commit.c7dfd78e.Emscripten.clang"
  },
  "schemaVersion": "3.4.4",
  "updatedAt": "2022-01-23T10:27:28.802Z",
  "networkType": "ethereum",
  "devdoc": {
    "kind": "dev",
    "methods": {},
    "version": 1
  },
  "userdoc": {
    "kind": "user",
    "methods": {},
    "version": 1
  }
}